{
  "address": "0x09cd067780108bb1921746de5a3d2cae6f00c5a1",
  "txHash": "0x9a03e4a71fdf81fe48d57b0ded5dad7591e64379f353f7b29beb16fc985b1f1d",
  "abi": [
    {
      "inputs": [
        {
          "internalType": "uint256",
          "name": "_unlockTime",
          "type": "uint256"
        }
      ],
      "stateMutability": "payable",
      "type": "constructor"
    },
    {
      "anonymous": false,
      "inputs": [
        {
          "indexed": false,
          "internalType": "uint256",
          "name": "amount",
          "type": "uint256"
        },
        {
          "indexed": false,
          "internalType": "uint256",
          "name": "when",
          "type": "uint256"
        }
      ],
      "name": "Withdrawal",
      "type": "event"
    },
    {
      "inputs": [],
      "name": "owner",
      "outputs": [
        {
          "internalType": "address payable",
          "name": "",
          "type": "address"
        }
      ],
      "stateMutability": "view",
      "type": "function"
    },
    {
      "inputs": [],
      "name": "unlockTime",
      "outputs": [
        {
          "internalType": "uint256",
          "name": "",
          "type": "uint256"
        }
      ],
      "stateMutability": "view",
      "type": "function"
    },
    {
      "inputs": [],
      "name": "withdraw",
      "outputs": [],
      "stateMutability": "nonpayable",
      "type": "function"
    }
  ],
  "contractName": "Lock",
  "sourceName": "contracts/Lock.sol",
  "bytecode": "0x60806040526040516105ac3803806105ac833981810160405281019061002591906100ea565b804210610067576040517f08c379a000000000000000000000000000000000000000000000000000000000815260040161005e90610195565b60405180910390fd5b805f819055503360015f6101000a81548173ffffffffffffffffffffffffffffffffffffffff021916908373ffffffffffffffffffffffffffffffffffffffff160217905550506101b3565b5f80fd5b5f819050919050565b6100c9816100b7565b81146100d3575f80fd5b50565b5f815190506100e4816100c0565b92915050565b5f602082840312156100ff576100fe6100b3565b5b5f61010c848285016100d6565b91505092915050565b5f82825260208201905092915050565b7f556e6c6f636b2074696d652073686f756c6420626520696e20746865206675745f8201527f7572650000000000000000000000000000000000000000000000000000000000602082015250565b5f61017f602383610115565b915061018a82610125565b604082019050919050565b5f6020820190508181035f8301526101ac81610173565b9050919050565b6103ec806101c05f395ff3fe608060405234801561000f575f80fd5b506004361061003f575f3560e01c8063251c1aa3146100435780633ccfd60b146100615780638da5cb5b1461006b575b5f80fd5b61004b610089565b604051610058919061023e565b60405180910390f35b61006961008e565b005b610073610201565b6040516100809190610296565b60405180910390f35b5f5481565b5f544210156100d2576040517f08c379a00000000000000000000000000000000000000000000000000000000081526004016100c990610309565b60405180910390fd5b60015f9054906101000a900473ffffffffffffffffffffffffffffffffffffffff1673ffffffffffffffffffffffffffffffffffffffff163373ffffffffffffffffffffffffffffffffffffffff1614610161576040517f08c379a000000000000000000000000000000000000000000000000000000000815260040161015890610371565b60405180910390fd5b7fbf2ed60bd5b5965d685680c01195c9514e4382e28e3a5a2d2d5244bf59411b93474260405161019292919061038f565b60405180910390a160015f9054906101000a900473ffffffffffffffffffffffffffffffffffffffff1673ffffffffffffffffffffffffffffffffffffffff166108fc4790811502906040515f60405180830381858888f193505050501580156101fe573d5f803e3d5ffd5b50565b60015f9054906101000a900473ffffffffffffffffffffffffffffffffffffffff1681565b5f819050919050565b61023881610226565b82525050565b5f6020820190506102515f83018461022f565b92915050565b5f73ffffffffffffffffffffffffffffffffffffffff82169050919050565b5f61028082610257565b9050919050565b61029081610276565b82525050565b5f6020820190506102a95f830184610287565b92915050565b5f82825260208201905092915050565b7f596f752063616e277420776974686472617720796574000000000000000000005f82015250565b5f6102f36016836102af565b91506102fe826102bf565b602082019050919050565b5f6020820190508181035f830152610320816102e7565b9050919050565b7f596f75206172656e277420746865206f776e65720000000000000000000000005f82015250565b5f61035b6014836102af565b915061036682610327565b602082019050919050565b5f6020820190508181035f8301526103888161034f565b9050919050565b5f6040820190506103a25f83018561022f565b6103af602083018461022f565b939250505056fea2646970667358221220070821951dba18fea7ea8bb1842a48a6743f010cd0a27b1df715b503835a1f2e64736f6c63430008140033",
  "linkReferences": {},
  "deployedLinkReferences": {},
  "devdoc": {
    "kind": "dev",
    "methods": {},
    "version": 1
  },
  "evm": {
    "gasEstimates": {
      "creation": {
        "codeDepositCost": "200800",
        "executionCost": "infinite",
        "totalCost": "infinite"
      },
      "external": {
        "owner()": "2530",
        "unlockTime()": "2402",
        "withdraw()": "infinite"
      }
    }
  },
  "storageLayout": {
    "storage": [
      {
        "astId": 3,
        "contract": "contracts/Lock.sol:Lock",
        "label": "unlockTime",
        "offset": 0,
        "slot": "0",
        "type": "t_uint256"
      },
      {
        "astId": 5,
        "contract": "contracts/Lock.sol:Lock",
        "label": "owner",
        "offset": 0,
        "slot": "1",
        "type": "t_address_payable"
      }
    ],
    "types": {
      "t_address_payable": {
        "encoding": "inplace",
        "label": "address payable",
        "numberOfBytes": "20"
      },
      "t_uint256": {
        "encoding": "inplace",
        "label": "uint256",
        "numberOfBytes": "32"
      }
    }
  },
  "userdoc": {
    "kind": "user",
    "methods": {},
    "version": 1
  },
  "argsData": "0x00000000000000000000000000000000000000000000000000000000713fb300"
}